{
    "_format": "hh-sol-artifact-1",
    "contractName": "GanNft",
    "sourceName": "contracts/GanNft.sol",
    "abi": [
        {
            "inputs": [],
            "stateMutability": "nonpayable",
            "type": "constructor"
        },
        {
            "anonymous": false,
            "inputs": [
                {
                    "indexed": true,
                    "internalType": "address",
                    "name": "owner",
                    "type": "address"
                },
                {
                    "indexed": true,
                    "internalType": "address",
                    "name": "approved",
                    "type": "address"
                },
                {
                    "indexed": true,
                    "internalType": "uint256",
                    "name": "tokenId",
                    "type": "uint256"
                }
            ],
            "name": "Approval",
            "type": "event"
        },
        {
            "anonymous": false,
            "inputs": [
                {
                    "indexed": true,
                    "internalType": "address",
                    "name": "owner",
                    "type": "address"
                },
                {
                    "indexed": true,
                    "internalType": "address",
                    "name": "operator",
                    "type": "address"
                },
                {
                    "indexed": false,
                    "internalType": "bool",
                    "name": "approved",
                    "type": "bool"
                }
            ],
            "name": "ApprovalForAll",
            "type": "event"
        },
        {
            "anonymous": false,
            "inputs": [],
            "name": "MintRequest",
            "type": "event"
        },
        {
            "anonymous": false,
            "inputs": [
                {
                    "indexed": true,
                    "internalType": "address",
                    "name": "from",
                    "type": "address"
                },
                {
                    "indexed": true,
                    "internalType": "address",
                    "name": "to",
                    "type": "address"
                },
                {
                    "indexed": true,
                    "internalType": "uint256",
                    "name": "tokenId",
                    "type": "uint256"
                }
            ],
            "name": "Transfer",
            "type": "event"
        },
        {
            "inputs": [
                {
                    "internalType": "address",
                    "name": "to",
                    "type": "address"
                },
                {
                    "internalType": "uint256",
                    "name": "tokenId",
                    "type": "uint256"
                }
            ],
            "name": "approve",
            "outputs": [],
            "stateMutability": "nonpayable",
            "type": "function"
        },
        {
            "inputs": [
                {
                    "internalType": "address",
                    "name": "owner",
                    "type": "address"
                }
            ],
            "name": "balanceOf",
            "outputs": [
                {
                    "internalType": "uint256",
                    "name": "",
                    "type": "uint256"
                }
            ],
            "stateMutability": "view",
            "type": "function"
        },
        {
            "inputs": [
                {
                    "internalType": "uint256",
                    "name": "tokenId",
                    "type": "uint256"
                }
            ],
            "name": "getApproved",
            "outputs": [
                {
                    "internalType": "address",
                    "name": "",
                    "type": "address"
                }
            ],
            "stateMutability": "view",
            "type": "function"
        },
        {
            "inputs": [
                {
                    "internalType": "address",
                    "name": "owner",
                    "type": "address"
                },
                {
                    "internalType": "address",
                    "name": "operator",
                    "type": "address"
                }
            ],
            "name": "isApprovedForAll",
            "outputs": [
                {
                    "internalType": "bool",
                    "name": "",
                    "type": "bool"
                }
            ],
            "stateMutability": "view",
            "type": "function"
        },
        {
            "inputs": [],
            "name": "mintRequest",
            "outputs": [],
            "stateMutability": "nonpayable",
            "type": "function"
        },
        {
            "inputs": [],
            "name": "name",
            "outputs": [
                {
                    "internalType": "string",
                    "name": "",
                    "type": "string"
                }
            ],
            "stateMutability": "view",
            "type": "function"
        },
        {
            "inputs": [
                {
                    "internalType": "uint256",
                    "name": "tokenId",
                    "type": "uint256"
                }
            ],
            "name": "ownerOf",
            "outputs": [
                {
                    "internalType": "address",
                    "name": "",
                    "type": "address"
                }
            ],
            "stateMutability": "view",
            "type": "function"
        },
        {
            "inputs": [
                {
                    "internalType": "address",
                    "name": "from",
                    "type": "address"
                },
                {
                    "internalType": "address",
                    "name": "to",
                    "type": "address"
                },
                {
                    "internalType": "uint256",
                    "name": "tokenId",
                    "type": "uint256"
                }
            ],
            "name": "safeTransferFrom",
            "outputs": [],
            "stateMutability": "nonpayable",
            "type": "function"
        },
        {
            "inputs": [
                {
                    "internalType": "address",
                    "name": "from",
                    "type": "address"
                },
                {
                    "internalType": "address",
                    "name": "to",
                    "type": "address"
                },
                {
                    "internalType": "uint256",
                    "name": "tokenId",
                    "type": "uint256"
                },
                {
                    "internalType": "bytes",
                    "name": "_data",
                    "type": "bytes"
                }
            ],
            "name": "safeTransferFrom",
            "outputs": [],
            "stateMutability": "nonpayable",
            "type": "function"
        },
        {
            "inputs": [
                {
                    "internalType": "address",
                    "name": "operator",
                    "type": "address"
                },
                {
                    "internalType": "bool",
                    "name": "approved",
                    "type": "bool"
                }
            ],
            "name": "setApprovalForAll",
            "outputs": [],
            "stateMutability": "nonpayable",
            "type": "function"
        },
        {
            "inputs": [
                {
                    "internalType": "string",
                    "name": "_tokenURI",
                    "type": "string"
                }
            ],
            "name": "setTokenURI",
            "outputs": [],
            "stateMutability": "nonpayable",
            "type": "function"
        },
        {
            "inputs": [
                {
                    "internalType": "bytes4",
                    "name": "interfaceId",
                    "type": "bytes4"
                }
            ],
            "name": "supportsInterface",
            "outputs": [
                {
                    "internalType": "bool",
                    "name": "",
                    "type": "bool"
                }
            ],
            "stateMutability": "view",
            "type": "function"
        },
        {
            "inputs": [],
            "name": "symbol",
            "outputs": [
                {
                    "internalType": "string",
                    "name": "",
                    "type": "string"
                }
            ],
            "stateMutability": "view",
            "type": "function"
        },
        {
            "inputs": [
                {
                    "internalType": "uint256",
                    "name": "index",
                    "type": "uint256"
                }
            ],
            "name": "tokenByIndex",
            "outputs": [
                {
                    "internalType": "uint256",
                    "name": "",
                    "type": "uint256"
                }
            ],
            "stateMutability": "view",
            "type": "function"
        },
        {
            "inputs": [
                {
                    "internalType": "address",
                    "name": "owner",
                    "type": "address"
                },
                {
                    "internalType": "uint256",
                    "name": "index",
                    "type": "uint256"
                }
            ],
            "name": "tokenOfOwnerByIndex",
            "outputs": [
                {
                    "internalType": "uint256",
                    "name": "",
                    "type": "uint256"
                }
            ],
            "stateMutability": "view",
            "type": "function"
        },
        {
            "inputs": [
                {
                    "internalType": "uint256",
                    "name": "_tokenId",
                    "type": "uint256"
                }
            ],
            "name": "tokenURI",
            "outputs": [
                {
                    "internalType": "string",
                    "name": "",
                    "type": "string"
                }
            ],
            "stateMutability": "view",
            "type": "function"
        },
        {
            "inputs": [],
            "name": "totalSupply",
            "outputs": [
                {
                    "internalType": "uint256",
                    "name": "",
                    "type": "uint256"
                }
            ],
            "stateMutability": "view",
            "type": "function"
        },
        {
            "inputs": [
                {
                    "internalType": "address",
                    "name": "from",
                    "type": "address"
                },
                {
                    "internalType": "address",
                    "name": "to",
                    "type": "address"
                },
                {
                    "internalType": "uint256",
                    "name": "tokenId",
                    "type": "uint256"
                }
            ],
            "name": "transferFrom",
            "outputs": [],
            "stateMutability": "nonpayable",
            "type": "function"
        }
    ],
    "bytecode": "0x60806040523480156200001157600080fd5b506040518060400160405280600781526020017f47414e204e4654000000000000000000000000000000000000000000000000008152506040518060400160405280600481526020017f474e465400000000000000000000000000000000000000000000000000000000815250816000908051906020019062000096929190620001cf565b508060019080519060200190620000af929190620001cf565b505050620000fd6040518060400160405280601281526020017f636f6e7472616374206465706c6f7965642e00000000000000000000000000008152506200010360201b62000cdc1760201c565b620003ac565b620001a3816040516024016200011a9190620002c0565b6040516020818303038152906040527f41304fac000000000000000000000000000000000000000000000000000000007bffffffffffffffffffffffffffffffffffffffffffffffffffffffff19166020820180517bffffffffffffffffffffffffffffffffffffffffffffffffffffffff8381831617835250505050620001a660201b60201c565b50565b60008151905060006a636f6e736f6c652e6c6f679050602083016000808483855afa5050505050565b828054620001dd9062000336565b90600052602060002090601f0160209004810192826200020157600085556200024d565b82601f106200021c57805160ff19168380011785556200024d565b828001600101855582156200024d579182015b828111156200024c5782518255916020019190600101906200022f565b5b5090506200025c919062000260565b5090565b5b808211156200027b57600081600090555060010162000261565b5090565b60006200028c82620002e4565b620002988185620002ef565b9350620002aa81856020860162000300565b620002b5816200039b565b840191505092915050565b60006020820190508181036000830152620002dc81846200027f565b905092915050565b600081519050919050565b600082825260208201905092915050565b60005b838110156200032057808201518184015260208101905062000303565b8381111562000330576000848401525b50505050565b600060028204905060018216806200034f57607f821691505b602082108114156200036657620003656200036c565b5b50919050565b7f4e487b7100000000000000000000000000000000000000000000000000000000600052602260045260246000fd5b6000601f19601f8301169050919050565b612f3780620003bc6000396000f3fe608060405234801561001057600080fd5b50600436106101165760003560e01c80636352211e116100a2578063a22cb46511610071578063a22cb465146102f3578063b88d4fde1461030f578063c87b56dd1461032b578063e0df5b6f1461035b578063e985e9c51461037757610116565b80636352211e1461026b57806370a082311461029b57806370ade062146102cb57806395d89b41146102d557610116565b806318160ddd116100e957806318160ddd146101b557806323b872dd146101d35780632f745c59146101ef57806342842e0e1461021f5780634f6ccce71461023b57610116565b806301ffc9a71461011b57806306fdde031461014b578063081812fc14610169578063095ea7b314610199575b600080fd5b6101356004803603810190610130919061216f565b6103a7565b604051610142919061253e565b60405180910390f35b610153610421565b6040516101609190612559565b60405180910390f35b610183600480360381019061017e9190612202565b6104b3565b60405161019091906124d7565b60405180910390f35b6101b360048036038101906101ae9190612133565b610538565b005b6101bd610650565b6040516101ca919061275b565b60405180910390f35b6101ed60048036038101906101e8919061202d565b61065d565b005b61020960048036038101906102049190612133565b6106bd565b604051610216919061275b565b60405180910390f35b6102396004803603810190610234919061202d565b610762565b005b61025560048036038101906102509190612202565b610782565b604051610262919061275b565b60405180910390f35b61028560048036038101906102809190612202565b610819565b60405161029291906124d7565b60405180910390f35b6102b560048036038101906102b09190611fc8565b6108cb565b6040516102c2919061275b565b60405180910390f35b6102d3610983565b005b6102dd610a12565b6040516102ea9190612559565b60405180910390f35b61030d600480360381019061030891906120f7565b610aa4565b005b6103296004803603810190610324919061207c565b610aba565b005b61034560048036038101906103409190612202565b610b1c565b6040516103529190612559565b60405180910390f35b610375600480360381019061037091906121c1565b610bc1565b005b610391600480360381019061038c9190611ff1565b610c48565b60405161039e919061253e565b60405180910390f35b60007f780e9d63000000000000000000000000000000000000000000000000000000007bffffffffffffffffffffffffffffffffffffffffffffffffffffffff1916827bffffffffffffffffffffffffffffffffffffffffffffffffffffffff1916148061041a575061041982610d75565b5b9050919050565b60606000805461043090612975565b80601f016020809104026020016040519081016040528092919081815260200182805461045c90612975565b80156104a95780601f1061047e576101008083540402835291602001916104a9565b820191906000526020600020905b81548152906001019060200180831161048c57829003601f168201915b5050505050905090565b60006104be82610e57565b6104fd576040517f08c379a00000000000000000000000000000000000000000000000000000000081526004016104f4906126db565b60405180910390fd5b6004600083815260200190815260200160002060009054906101000a900473ffffffffffffffffffffffffffffffffffffffff169050919050565b600061054382610819565b90508073ffffffffffffffffffffffffffffffffffffffff168373ffffffffffffffffffffffffffffffffffffffff1614156105b4576040517f08c379a00000000000000000000000000000000000000000000000000000000081526004016105ab906126fb565b60405180910390fd5b8073ffffffffffffffffffffffffffffffffffffffff166105d3610ec3565b73ffffffffffffffffffffffffffffffffffffffff1614806106025750610601816105fc610ec3565b610c48565b5b610641576040517f08c379a00000000000000000000000000000000000000000000000000000000081526004016106389061265b565b60405180910390fd5b61064b8383610ecb565b505050565b6000600880549050905090565b61066e610668610ec3565b82610f84565b6106ad576040517f08c379a00000000000000000000000000000000000000000000000000000000081526004016106a49061271b565b60405180910390fd5b6106b8838383611062565b505050565b60006106c8836108cb565b8210610709576040517f08c379a00000000000000000000000000000000000000000000000000000000081526004016107009061257b565b60405180910390fd5b600660008473ffffffffffffffffffffffffffffffffffffffff1673ffffffffffffffffffffffffffffffffffffffff168152602001908152602001600020600083815260200190815260200160002054905092915050565b61077d83838360405180602001604052806000815250610aba565b505050565b600061078c610650565b82106107cd576040517f08c379a00000000000000000000000000000000000000000000000000000000081526004016107c49061273b565b60405180910390fd5b60088281548110610807577f4e487b7100000000000000000000000000000000000000000000000000000000600052603260045260246000fd5b90600052602060002001549050919050565b6000806002600084815260200190815260200160002060009054906101000a900473ffffffffffffffffffffffffffffffffffffffff169050600073ffffffffffffffffffffffffffffffffffffffff168173ffffffffffffffffffffffffffffffffffffffff1614156108c2576040517f08c379a00000000000000000000000000000000000000000000000000000000081526004016108b99061269b565b60405180910390fd5b80915050919050565b60008073ffffffffffffffffffffffffffffffffffffffff168273ffffffffffffffffffffffffffffffffffffffff16141561093c576040517f08c379a00000000000000000000000000000000000000000000000000000000081526004016109339061267b565b60405180910390fd5b600360008373ffffffffffffffffffffffffffffffffffffffff1673ffffffffffffffffffffffffffffffffffffffff168152602001908152602001600020549050919050565b600061098f600a6112c9565b905033600c600083815260200190815260200160002060006101000a81548173ffffffffffffffffffffffffffffffffffffffff021916908373ffffffffffffffffffffffffffffffffffffffff1602179055507fe917b602d27731224f5fee633cea05746b70e637482aad2de769e35ebac84ddf60405160405180910390a150565b606060018054610a2190612975565b80601f0160208091040260200160405190810160405280929190818152602001828054610a4d90612975565b8015610a9a5780601f10610a6f57610100808354040283529160200191610a9a565b820191906000526020600020905b815481529060010190602001808311610a7d57829003601f168201915b5050505050905090565b610ab6610aaf610ec3565b83836112d7565b5050565b610acb610ac5610ec3565b83610f84565b610b0a576040517f08c379a0000000000000000000000000000000000000000000000000000000008152600401610b019061271b565b60405180910390fd5b610b1684848484611444565b50505050565b6060600b60008381526020019081526020016000208054610b3c90612975565b80601f0160208091040260200160405190810160405280929190818152602001828054610b6890612975565b8015610bb55780601f10610b8a57610100808354040283529160200191610bb5565b820191906000526020600020905b815481529060010190602001808311610b9857829003601f168201915b50505050509050919050565b6000610bcd600a6112c9565b905081600b60008381526020019081526020016000209080519060200190610bf6929190611dec565b506000600c600083815260200190815260200160002060009054906101000a900473ffffffffffffffffffffffffffffffffffffffff169050610c3981836114a0565b610c43600a6114be565b505050565b6000600560008473ffffffffffffffffffffffffffffffffffffffff1673ffffffffffffffffffffffffffffffffffffffff16815260200190815260200160002060008373ffffffffffffffffffffffffffffffffffffffff1673ffffffffffffffffffffffffffffffffffffffff16815260200190815260200160002060009054906101000a900460ff16905092915050565b610d7281604051602401610cf09190612559565b6040516020818303038152906040527f41304fac000000000000000000000000000000000000000000000000000000007bffffffffffffffffffffffffffffffffffffffffffffffffffffffff19166020820180517bffffffffffffffffffffffffffffffffffffffffffffffffffffffff83818316178352505050506114d4565b50565b60007f80ac58cd000000000000000000000000000000000000000000000000000000007bffffffffffffffffffffffffffffffffffffffffffffffffffffffff1916827bffffffffffffffffffffffffffffffffffffffffffffffffffffffff19161480610e4057507f5b5e139f000000000000000000000000000000000000000000000000000000007bffffffffffffffffffffffffffffffffffffffffffffffffffffffff1916827bffffffffffffffffffffffffffffffffffffffffffffffffffffffff1916145b80610e505750610e4f826114fd565b5b9050919050565b60008073ffffffffffffffffffffffffffffffffffffffff166002600084815260200190815260200160002060009054906101000a900473ffffffffffffffffffffffffffffffffffffffff1673ffffffffffffffffffffffffffffffffffffffff1614159050919050565b600033905090565b816004600083815260200190815260200160002060006101000a81548173ffffffffffffffffffffffffffffffffffffffff021916908373ffffffffffffffffffffffffffffffffffffffff160217905550808273ffffffffffffffffffffffffffffffffffffffff16610f3e83610819565b73ffffffffffffffffffffffffffffffffffffffff167f8c5be1e5ebec7d5bd14f71427d1e84f3dd0314c0f7b2291e5b200ac8c7c3b92560405160405180910390a45050565b6000610f8f82610e57565b610fce576040517f08c379a0000000000000000000000000000000000000000000000000000000008152600401610fc59061263b565b60405180910390fd5b6000610fd983610819565b90508073ffffffffffffffffffffffffffffffffffffffff168473ffffffffffffffffffffffffffffffffffffffff16148061104857508373ffffffffffffffffffffffffffffffffffffffff16611030846104b3565b73ffffffffffffffffffffffffffffffffffffffff16145b8061105957506110588185610c48565b5b91505092915050565b8273ffffffffffffffffffffffffffffffffffffffff1661108282610819565b73ffffffffffffffffffffffffffffffffffffffff16146110d8576040517f08c379a00000000000000000000000000000000000000000000000000000000081526004016110cf906125bb565b60405180910390fd5b600073ffffffffffffffffffffffffffffffffffffffff168273ffffffffffffffffffffffffffffffffffffffff161415611148576040517f08c379a000000000000000000000000000000000000000000000000000000000815260040161113f906125fb565b60405180910390fd5b611153838383611567565b61115e600082610ecb565b6001600360008573ffffffffffffffffffffffffffffffffffffffff1673ffffffffffffffffffffffffffffffffffffffff16815260200190815260200160002060008282546111ae919061288b565b925050819055506001600360008473ffffffffffffffffffffffffffffffffffffffff1673ffffffffffffffffffffffffffffffffffffffff16815260200190815260200160002060008282546112059190612835565b92505081905550816002600083815260200190815260200160002060006101000a81548173ffffffffffffffffffffffffffffffffffffffff021916908373ffffffffffffffffffffffffffffffffffffffff160217905550808273ffffffffffffffffffffffffffffffffffffffff168473ffffffffffffffffffffffffffffffffffffffff167fddf252ad1be2c89b69c2b068fc378daa952ba7f163c4a11628f55a4df523b3ef60405160405180910390a46112c483838361167b565b505050565b600081600001549050919050565b8173ffffffffffffffffffffffffffffffffffffffff168373ffffffffffffffffffffffffffffffffffffffff161415611346576040517f08c379a000000000000000000000000000000000000000000000000000000000815260040161133d9061261b565b60405180910390fd5b80600560008573ffffffffffffffffffffffffffffffffffffffff1673ffffffffffffffffffffffffffffffffffffffff16815260200190815260200160002060008473ffffffffffffffffffffffffffffffffffffffff1673ffffffffffffffffffffffffffffffffffffffff16815260200190815260200160002060006101000a81548160ff0219169083151502179055508173ffffffffffffffffffffffffffffffffffffffff168373ffffffffffffffffffffffffffffffffffffffff167f17307eab39ab6107e8899845ad3d59bd9653f200f220920489ca2b5937696c3183604051611437919061253e565b60405180910390a3505050565b61144f848484611062565b61145b84848484611680565b61149a576040517f08c379a00000000000000000000000000000000000000000000000000000000081526004016114919061259b565b60405180910390fd5b50505050565b6114ba828260405180602001604052806000815250611817565b5050565b6001816000016000828254019250508190555050565b60008151905060006a636f6e736f6c652e6c6f679050602083016000808483855afa5050505050565b60007f01ffc9a7000000000000000000000000000000000000000000000000000000007bffffffffffffffffffffffffffffffffffffffffffffffffffffffff1916827bffffffffffffffffffffffffffffffffffffffffffffffffffffffff1916149050919050565b611572838383611872565b600073ffffffffffffffffffffffffffffffffffffffff168373ffffffffffffffffffffffffffffffffffffffff1614156115b5576115b081611877565b6115f4565b8173ffffffffffffffffffffffffffffffffffffffff168373ffffffffffffffffffffffffffffffffffffffff16146115f3576115f283826118c0565b5b5b600073ffffffffffffffffffffffffffffffffffffffff168273ffffffffffffffffffffffffffffffffffffffff1614156116375761163281611a2d565b611676565b8273ffffffffffffffffffffffffffffffffffffffff168273ffffffffffffffffffffffffffffffffffffffff1614611675576116748282611b70565b5b5b505050565b505050565b60006116a18473ffffffffffffffffffffffffffffffffffffffff16611bef565b1561180a578373ffffffffffffffffffffffffffffffffffffffff1663150b7a026116ca610ec3565b8786866040518563ffffffff1660e01b81526004016116ec94939291906124f2565b602060405180830381600087803b15801561170657600080fd5b505af192505050801561173757506040513d601f19601f820116820180604052508101906117349190612198565b60015b6117ba573d8060008114611767576040519150601f19603f3d011682016040523d82523d6000602084013e61176c565b606091505b506000815114156117b2576040517f08c379a00000000000000000000000000000000000000000000000000000000081526004016117a99061259b565b60405180910390fd5b805181602001fd5b63150b7a0260e01b7bffffffffffffffffffffffffffffffffffffffffffffffffffffffff1916817bffffffffffffffffffffffffffffffffffffffffffffffffffffffff19161491505061180f565b600190505b949350505050565b6118218383611c12565b61182e6000848484611680565b61186d576040517f08c379a00000000000000000000000000000000000000000000000000000000081526004016118649061259b565b60405180910390fd5b505050565b505050565b6008805490506009600083815260200190815260200160002081905550600881908060018154018082558091505060019003906000526020600020016000909190919091505550565b600060016118cd846108cb565b6118d7919061288b565b90506000600760008481526020019081526020016000205490508181146119bc576000600660008673ffffffffffffffffffffffffffffffffffffffff1673ffffffffffffffffffffffffffffffffffffffff168152602001908152602001600020600084815260200190815260200160002054905080600660008773ffffffffffffffffffffffffffffffffffffffff1673ffffffffffffffffffffffffffffffffffffffff168152602001908152602001600020600084815260200190815260200160002081905550816007600083815260200190815260200160002081905550505b6007600084815260200190815260200160002060009055600660008573ffffffffffffffffffffffffffffffffffffffff1673ffffffffffffffffffffffffffffffffffffffff16815260200190815260200160002060008381526020019081526020016000206000905550505050565b60006001600880549050611a41919061288b565b9050600060096000848152602001908152602001600020549050600060088381548110611a97577f4e487b7100000000000000000000000000000000000000000000000000000000600052603260045260246000fd5b906000526020600020015490508060088381548110611adf577f4e487b7100000000000000000000000000000000000000000000000000000000600052603260045260246000fd5b906000526020600020018190555081600960008381526020019081526020016000208190555060096000858152602001908152602001600020600090556008805480611b54577f4e487b7100000000000000000000000000000000000000000000000000000000600052603160045260246000fd5b6001900381819060005260206000200160009055905550505050565b6000611b7b836108cb565b905081600660008573ffffffffffffffffffffffffffffffffffffffff1673ffffffffffffffffffffffffffffffffffffffff168152602001908152602001600020600083815260200190815260200160002081905550806007600084815260200190815260200160002081905550505050565b6000808273ffffffffffffffffffffffffffffffffffffffff163b119050919050565b600073ffffffffffffffffffffffffffffffffffffffff168273ffffffffffffffffffffffffffffffffffffffff161415611c82576040517f08c379a0000000000000000000000000000000000000000000000000000000008152600401611c79906126bb565b60405180910390fd5b611c8b81610e57565b15611ccb576040517f08c379a0000000000000000000000000000000000000000000000000000000008152600401611cc2906125db565b60405180910390fd5b611cd760008383611567565b6001600360008473ffffffffffffffffffffffffffffffffffffffff1673ffffffffffffffffffffffffffffffffffffffff1681526020019081526020016000206000828254611d279190612835565b92505081905550816002600083815260200190815260200160002060006101000a81548173ffffffffffffffffffffffffffffffffffffffff021916908373ffffffffffffffffffffffffffffffffffffffff160217905550808273ffffffffffffffffffffffffffffffffffffffff16600073ffffffffffffffffffffffffffffffffffffffff167fddf252ad1be2c89b69c2b068fc378daa952ba7f163c4a11628f55a4df523b3ef60405160405180910390a4611de86000838361167b565b5050565b828054611df890612975565b90600052602060002090601f016020900481019282611e1a5760008555611e61565b82601f10611e3357805160ff1916838001178555611e61565b82800160010185558215611e61579182015b82811115611e60578251825591602001919060010190611e45565b5b509050611e6e9190611e72565b5090565b5b80821115611e8b576000816000905550600101611e73565b5090565b6000611ea2611e9d8461279b565b612776565b905082815260208101848484011115611eba57600080fd5b611ec5848285612933565b509392505050565b6000611ee0611edb846127cc565b612776565b905082815260208101848484011115611ef857600080fd5b611f03848285612933565b509392505050565b600081359050611f1a81612ea5565b92915050565b600081359050611f2f81612ebc565b92915050565b600081359050611f4481612ed3565b92915050565b600081519050611f5981612ed3565b92915050565b600082601f830112611f7057600080fd5b8135611f80848260208601611e8f565b91505092915050565b600082601f830112611f9a57600080fd5b8135611faa848260208601611ecd565b91505092915050565b600081359050611fc281612eea565b92915050565b600060208284031215611fda57600080fd5b6000611fe884828501611f0b565b91505092915050565b6000806040838503121561200457600080fd5b600061201285828601611f0b565b925050602061202385828601611f0b565b9150509250929050565b60008060006060848603121561204257600080fd5b600061205086828701611f0b565b935050602061206186828701611f0b565b925050604061207286828701611fb3565b9150509250925092565b6000806000806080858703121561209257600080fd5b60006120a087828801611f0b565b94505060206120b187828801611f0b565b93505060406120c287828801611fb3565b925050606085013567ffffffffffffffff8111156120df57600080fd5b6120eb87828801611f5f565b91505092959194509250565b6000806040838503121561210a57600080fd5b600061211885828601611f0b565b925050602061212985828601611f20565b9150509250929050565b6000806040838503121561214657600080fd5b600061215485828601611f0b565b925050602061216585828601611fb3565b9150509250929050565b60006020828403121561218157600080fd5b600061218f84828501611f35565b91505092915050565b6000602082840312156121aa57600080fd5b60006121b884828501611f4a565b91505092915050565b6000602082840312156121d357600080fd5b600082013567ffffffffffffffff8111156121ed57600080fd5b6121f984828501611f89565b91505092915050565b60006020828403121561221457600080fd5b600061222284828501611fb3565b91505092915050565b612234816128bf565b82525050565b612243816128d1565b82525050565b6000612254826127fd565b61225e8185612813565b935061226e818560208601612942565b61227781612a65565b840191505092915050565b600061228d82612808565b6122978185612824565b93506122a7818560208601612942565b6122b081612a65565b840191505092915050565b60006122c8602b83612824565b91506122d382612a76565b604082019050919050565b60006122eb603283612824565b91506122f682612ac5565b604082019050919050565b600061230e602583612824565b915061231982612b14565b604082019050919050565b6000612331601c83612824565b915061233c82612b63565b602082019050919050565b6000612354602483612824565b915061235f82612b8c565b604082019050919050565b6000612377601983612824565b915061238282612bdb565b602082019050919050565b600061239a602c83612824565b91506123a582612c04565b604082019050919050565b60006123bd603883612824565b91506123c882612c53565b604082019050919050565b60006123e0602a83612824565b91506123eb82612ca2565b604082019050919050565b6000612403602983612824565b915061240e82612cf1565b604082019050919050565b6000612426602083612824565b915061243182612d40565b602082019050919050565b6000612449602c83612824565b915061245482612d69565b604082019050919050565b600061246c602183612824565b915061247782612db8565b604082019050919050565b600061248f603183612824565b915061249a82612e07565b604082019050919050565b60006124b2602c83612824565b91506124bd82612e56565b604082019050919050565b6124d181612929565b82525050565b60006020820190506124ec600083018461222b565b92915050565b6000608082019050612507600083018761222b565b612514602083018661222b565b61252160408301856124c8565b81810360608301526125338184612249565b905095945050505050565b6000602082019050612553600083018461223a565b92915050565b600060208201905081810360008301526125738184612282565b905092915050565b60006020820190508181036000830152612594816122bb565b9050919050565b600060208201905081810360008301526125b4816122de565b9050919050565b600060208201905081810360008301526125d481612301565b9050919050565b600060208201905081810360008301526125f481612324565b9050919050565b6000602082019050818103600083015261261481612347565b9050919050565b600060208201905081810360008301526126348161236a565b9050919050565b600060208201905081810360008301526126548161238d565b9050919050565b60006020820190508181036000830152612674816123b0565b9050919050565b60006020820190508181036000830152612694816123d3565b9050919050565b600060208201905081810360008301526126b4816123f6565b9050919050565b600060208201905081810360008301526126d481612419565b9050919050565b600060208201905081810360008301526126f48161243c565b9050919050565b600060208201905081810360008301526127148161245f565b9050919050565b6000602082019050818103600083015261273481612482565b9050919050565b60006020820190508181036000830152612754816124a5565b9050919050565b600060208201905061277060008301846124c8565b92915050565b6000612780612791565b905061278c82826129a7565b919050565b6000604051905090565b600067ffffffffffffffff8211156127b6576127b5612a36565b5b6127bf82612a65565b9050602081019050919050565b600067ffffffffffffffff8211156127e7576127e6612a36565b5b6127f082612a65565b9050602081019050919050565b600081519050919050565b600081519050919050565b600082825260208201905092915050565b600082825260208201905092915050565b600061284082612929565b915061284b83612929565b9250827fffffffffffffffffffffffffffffffffffffffffffffffffffffffffffffffff038211156128805761287f6129d8565b5b828201905092915050565b600061289682612929565b91506128a183612929565b9250828210156128b4576128b36129d8565b5b828203905092915050565b60006128ca82612909565b9050919050565b60008115159050919050565b60007fffffffff0000000000000000000000000000000000000000000000000000000082169050919050565b600073ffffffffffffffffffffffffffffffffffffffff82169050919050565b6000819050919050565b82818337600083830152505050565b60005b83811015612960578082015181840152602081019050612945565b8381111561296f576000848401525b50505050565b6000600282049050600182168061298d57607f821691505b602082108114156129a1576129a0612a07565b5b50919050565b6129b082612a65565b810181811067ffffffffffffffff821117156129cf576129ce612a36565b5b80604052505050565b7f4e487b7100000000000000000000000000000000000000000000000000000000600052601160045260246000fd5b7f4e487b7100000000000000000000000000000000000000000000000000000000600052602260045260246000fd5b7f4e487b7100000000000000000000000000000000000000000000000000000000600052604160045260246000fd5b6000601f19601f8301169050919050565b7f455243373231456e756d657261626c653a206f776e657220696e646578206f7560008201527f74206f6620626f756e6473000000000000000000000000000000000000000000602082015250565b7f4552433732313a207472616e7366657220746f206e6f6e20455243373231526560008201527f63656976657220696d706c656d656e7465720000000000000000000000000000602082015250565b7f4552433732313a207472616e736665722066726f6d20696e636f72726563742060008201527f6f776e6572000000000000000000000000000000000000000000000000000000602082015250565b7f4552433732313a20746f6b656e20616c7265616479206d696e74656400000000600082015250565b7f4552433732313a207472616e7366657220746f20746865207a65726f2061646460008201527f7265737300000000000000000000000000000000000000000000000000000000602082015250565b7f4552433732313a20617070726f766520746f2063616c6c657200000000000000600082015250565b7f4552433732313a206f70657261746f7220717565727920666f72206e6f6e657860008201527f697374656e7420746f6b656e0000000000000000000000000000000000000000602082015250565b7f4552433732313a20617070726f76652063616c6c6572206973206e6f74206f7760008201527f6e6572206e6f7220617070726f76656420666f7220616c6c0000000000000000602082015250565b7f4552433732313a2062616c616e636520717565727920666f7220746865207a6560008201527f726f206164647265737300000000000000000000000000000000000000000000602082015250565b7f4552433732313a206f776e657220717565727920666f72206e6f6e657869737460008201527f656e7420746f6b656e0000000000000000000000000000000000000000000000602082015250565b7f4552433732313a206d696e7420746f20746865207a65726f2061646472657373600082015250565b7f4552433732313a20617070726f76656420717565727920666f72206e6f6e657860008201527f697374656e7420746f6b656e0000000000000000000000000000000000000000602082015250565b7f4552433732313a20617070726f76616c20746f2063757272656e74206f776e6560008201527f7200000000000000000000000000000000000000000000000000000000000000602082015250565b7f4552433732313a207472616e736665722063616c6c6572206973206e6f74206f60008201527f776e6572206e6f7220617070726f766564000000000000000000000000000000602082015250565b7f455243373231456e756d657261626c653a20676c6f62616c20696e646578206f60008201527f7574206f6620626f756e64730000000000000000000000000000000000000000602082015250565b612eae816128bf565b8114612eb957600080fd5b50565b612ec5816128d1565b8114612ed057600080fd5b50565b612edc816128dd565b8114612ee757600080fd5b50565b612ef381612929565b8114612efe57600080fd5b5056fea26469706673582212208f63c0e7d2448039e3372ec95f867a7cead3e3418e2f5f46ff336b5ea159c36a64736f6c63430008040033",
    "linkReferences": {},
    "deployedLinkReferences": {}
}